:100000000C9454000C9473000C9473000C947300C3
:100010000C9473000C9473000C9473000C94730094
:100020000C9473000C9473000C9473000C94730084
:100030000C9473000C9461010C9473000C94730085
:100040000C9473000C9473000C9473000C94730064
:100050000C9473000C9473000C9473000C94730054
:100060000C9473000C9473000C9473000C94730044
:100070000C9473000C9473000C9473000C94730034
:100080000C9473000C9473000C947300EC02F70250
:1000900012032D03480363037E0398039C03A2030A
:1000A000A503A903AC03B00311241FBECFEFD0E416
:1000B000DEBFCDBF11E0A0E0B1E0EEE2FCE000E089
:1000C0000BBF02C007900D92A831B107D9F721E00C
:1000D000A8E1B1E001C01D92A134B207E1F70E948E
:1000E0004C040C9415060C940000CF93DF9300D0C1
:1000F0001F92CDB7DEB789837B836A8389818A307B
:1001000031F48A819B81BC018DE00E94750080ECF6
:1001100090E0FC018081882F90E080729927892BE4
:10012000B1F386EC90E02981FC01208380E090E02F
:100130000F900F900F90DF91CF910895CF93DF93A1
:1001400000D01F92CDB7DEB789836A834B838B8142
:10015000882371F08A81282F30E081E090E002C08E
:10016000880F991F2A95E2F7982F8981892B0EC055
:100170008A81282F30E081E090E002C0880F991F2B
:100180002A95E2F7982F9095898189230F900F90F7
:100190000F90DF91CF910895CF93DF9300D0CDB72B
:1001A000DEB789836A838A81282F30E081E090E07E
:1001B00002C0880F991F2A95E2F7982F8981892319
:1001C0000F900F90DF91CF910895CF93DF9300D0E0
:1001D00000D0CDB7DEB769837A838B839C83898116
:1001E0009A81AB81BC8180930E0190930F01A09303
:1001F0001001B093110180910E0190910F01A09117
:100200001001B09111018093190190931A01A093EC
:100210001B01B0931C0100000F900F900F900F90E6
:10022000DF91CF910895CF93DF93CDB7DEB781E80B
:1002300090E02BE0FC01208388E890E02DE730E09F
:10024000FC01318320838FE690E022E0FC012083D3
:1002500084E890E0FC011182108280910E0190915F
:100260000F01A0911001B091110180931901909399
:100270001A01A0931B01B0931C018FE590E02FE5BC
:1002800030E0F90120812068FC0120830000DF912B
:10029000CF910895CF93DF93CDB7DEB781E890E09B
:1002A000FC0110820000DF91CF910895CF93DF937E
:1002B000CDB7DEB781E0809318010000DF91CF91C8
:1002C00008951F920F9200905F000F9211240090EA
:1002D0005B000F922F933F934F935F936F937F93A6
:1002E0008F939F93AF93BF93EF93FF93CF93DF933E
:1002F000CDB7DEB78091190190911A01A0911B0131
:10030000B0911C010197A109B10980931901909343
:100310001A01A0931B01B0931C01809119019091C7
:100320001A01A0911B01B0911C01892B8A2B8B2BE8
:1003300091F40E94560180910E0190910F01A091BD
:100340001001B09111018093190190931A01A093AB
:100350001B01B0931C010000DF91CF91FF91EF9141
:10036000BF91AF919F918F917F916F915F914F91CD
:100370003F912F910F9000925B000F9000925F00D1
:100380000F901F901895CF93DF93CDB7DEB788E21B
:1003900090E02FEEFC012083000086E290E0FC015B
:1003A000808160E00E94CC00882311F481E3B8C012
:1003B00086E290E0FC01808161E00E94CC0088230D
:1003C00011F484E3ADC086E290E0FC01808162E03C
:1003D0000E94CC00882311F487E3A2C086E290E05B
:1003E000FC01808163E00E94CC00882311F48AE242
:1003F00097C088E290E02FEDFC012083000086E2A8
:1004000090E0FC01808160E00E94CC00882311F420
:1004100082E386C086E290E0FC01808161E00E9478
:10042000CC00882311F485E37BC086E290E0FC01D8
:10043000808162E00E94CC00882311F488E370C0C0
:1004400086E290E0FC01808163E00E94CC0088237A
:1004500011F480E365C088E290E02FEBFC0120837B
:10046000000086E290E0FC01808160E00E94CC0008
:10047000882311F483E354C086E290E0FC0180817C
:1004800061E00E94CC00882311F486E349C086E233
:1004900090E0FC01808162E00E94CC00882311F48E
:1004A00089E33EC086E290E0FC01808163E00E9427
:1004B000CC00882311F483E233C088E290E02FE778
:1004C000FC012083000086E290E0FC01808160E076
:1004D0000E94CC00882311F481E422C086E290E0DF
:1004E000FC01808161E00E94CC00882311F482E449
:1004F00017C086E290E0FC01808162E00E94CC009F
:10050000882311F483E40CC086E290E0FC01808132
:1005100063E00E94CC00882311F484E401C080E0F1
:10052000DF91CF910895CF93DF9300D01F92CDB785
:10053000DEB79B838A838A819B81892B19F41B8276
:100540001A8203C01B821A8200008A819B81892B38
:10055000B1F480911E01882F90E0880F991F982F89
:1005600080911D01292F282B80911F01882F90E059
:10057000880F991F880F991F822B8983000085E2BD
:1005800090E02981FC0120838A819B810F900F904C
:100590000F90DF91CF910895CF93DF9300D01F92FA
:1005A000CDB7DEB79B838A830E94C30189838A818A
:1005B0009B81092E000CAA0BBB0B40E050E026E00B
:1005C00030E0841B950B2817390708F49AC08A5B22
:1005D0009F4FFC010C940C068981833229F481E041
:1005E00090E09B838A8390C01B821A828DC0898190
:1005F000833229F481E090E09B838A8385C08981DE
:10060000813329F482E090E09B838A837DC08981D5
:10061000882329F481E090E09B838A8375C01B8244
:100620001A8272C08981833229F481E090E09B8331
:100630008A836AC08981823329F483E090E09B83B6
:100640008A8362C08981882329F482E090E09B83B9
:100650008A835AC01B821A8257C08981833229F447
:1006600081E090E09B838A834FC08981833329F4A2
:1006700084E090E09B838A8347C08981882329F4A2
:1006800083E090E09B838A833FC01B821A823CC038
:100690008981833229F481E090E09B838A8334C08E
:1006A0008981843329F485E090E09B838A832CC080
:1006B0008981882329F484E090E09B838A8324C085
:1006C0001B821A8221C08981833229F481E090E063
:1006D0009B838A8319C08981853329F486E090E061
:1006E0009B838A8311C08981882329F485E090E067
:1006F0009B838A8309C01B821A8206C01B821A82CE
:1007000003C01B821A8200008A819B81092E000C83
:10071000AA0BBB0B40E050E026E030E0841B950BB9
:100720002817390718F1835B9F4FFC010C940C06C6
:1007300081E080931F011AC081E080931E01109216
:100740001F0114C010921E0111C081E080931E0190
:100750000DC010921E010AC081E080931E0106C0E8
:1007600081E080931D0110921E0100008A819B810F
:100770000F900F900F90DF91CF910895CF93DF935B
:1007800000D01F92CDB7DEB79B838A8383E290E0CF
:10079000FC0180818095807889838A819B81009784
:1007A00019F0019761F016C08981803819F41B8215
:1007B0001A8215C081E090E09B838A8310C08981F2
:1007C000803819F41B821A820AC081E090E09B8372
:1007D0008A8305C081E090E09B838A8300008A8140
:1007E0009B81892B19F410921D0101C000008A81A0
:1007F0009B810F900F900F90DF91CF910895CF9331
:10080000DF93CDB7DEB72C970FB6F894DEBF0FBEDF
:10081000CDBF6D837E838F83988729873A874B87E7
:100820005C878D819E81AF81B88529853A854B850E
:100830005C85BC01CD010E94EA05DC01CB01898306
:100840009A83AB83BC8389819A81AB81BC81892BDC
:100850008A2B8B2B29F489859A85AB85BC8511C0A1
:1008600089859A85AB85BC858D839E83AF83B88748
:1008700089819A81AB81BC8189879A87AB87BC8744
:10088000D0CFBC01CD012C960FB6F894DEBF0FBEC1
:10089000CDBFDF91CF9108950F931F93CF93DF9337
:1008A000CDB7DEB72F970FB6F894DEBF0FBECDBF22
:1008B00084E290E02FE7FC01208385E290E020E8CD
:1008C000FC01208381E290E0FC01108282E290E052
:1008D0002FEFFC01208387E290E020EFFC012083D2
:1008E00088E290E02FE0FC01208386E0E2E1F1E085
:1008F000DE011A9601900D928A95E1F783E090E06F
:1009000098878F838FEF89878985809320018CE278
:1009100091E0A0E0B0E08093210190932201A093A8
:100920002301B09324018091210190912201A09193
:100930002301B09124018093250190932601A09377
:100940002701B09328018CEC92E090932A018093C8
:100950002901898580932B0188EC90E0A0E0B0E02C
:1009600080932C0190932D01A0932E01B0932F0121
:1009700080912C0190912D01A0912E01B0912F0119
:100980008093300190933101A0933201B0933301F1
:100990008EEB93E0909335018093340189858093A9
:1009A00036018AE090E0A0E0B0E0809337019093B8
:1009B0003801A0933901B0933A01809137019091A9
:1009C0003801A0913901B0913A0180933B01909395
:1009D0003C01A0933D01B0933E0183E992E09093E6
:1009E000400180933F018A859B85FC018181928132
:1009F000A381B48189839A83AB83BC831E821D82C9
:100A000025C08D819E81880F991F9E012F5F3F4FCA
:100A1000820F931F0996FC0180819181FC01218145
:100A200032814381548189819A81AB81BC81BC012F
:100A3000CD010E94FF03DC01CB0189839A83AB8344
:100A4000BC838D819E8101969E838D832D813E8105
:100A50008F81988528173907A0F289819A81AB8107
:100A6000BC81BC01CD010E94E5000E9413011E82E1
:100A70001D82A0C08D819E81880F991F9E012F5FCE
:100A80003F4F820F931F0996FC0180819181FC01E9
:100A900025813681478150858D819E81880F991FE0
:100AA000BE016F5F7F4F860F971F0996FC01808103
:100AB0009181FC0181819281A381B481281739073A
:100AC0004A075B0709F045C08D819E81880F991FF9
:100AD0009E012F5F3F4F820F931F0996FC010081FB
:100AE00011818D819E81880F991F9E012F5F3F4F3D
:100AF000820F931F0996FC0180819181FC01218561
:100B000032858D819E81880F991FAE014F5F5F4FA7
:100B1000840F951F0996FC0180819181FC018081E1
:100B2000082E000C990BF9010995F80180838D813D
:100B30009E81880F991F9E012F5F3F4F820F931F49
:100B40000996FC0180819181FC0115821682178231
:100B500010868D819E81880F991F9E012F5F3F4FC8
:100B6000820F931F0996FC01608171818D819E81A6
:100B7000880F991F9E012F5F3F4F820F931F099689
:100B8000FC0180819181FC0125813681478150855E
:100B900089819A81AB81BC81820F931FA41FB51FED
:100BA000FB0185839683A783B0878D819E81019603
:100BB0009E838D832D813E818F81988528173907EB
:100BC00008F458CF0000809118018823E1F31092B7
:100BD00018014DCFA1E21A2EAA1BBB1BFD010DC0AF
:100BE000AA1FBB1FEE1FFF1FA217B307E407F507DD
:100BF00020F0A21BB30BE40BF50B661F771F881FB9
:100C0000991F1A9469F760957095809590959B014E
:100C1000AC01BD01CF010895EE0FFF1F0024001CA1
:0E0C20000BBE0790F691E02D0994F894FFCFDB
:100C2E00000000020000000075000000000001003E
:080C3E00000020012B0136012A
:00000001FF
