:100000000C9446000C9465000C9465000C946500FB
:100010000C9465000C9465000C9465000C946500CC
:100020000C9465000C9465000C9465000C946500BC
:100030000C9465000C9453010C9465000C946500BD
:100040000C9465000C9465000C9465000C9465009C
:100050000C9465000C9465000C9465000C9465008C
:100060000C9465000C9465000C9465000C9465007C
:100070000C9465000C9465000C9465000C9465006C
:100080000C9465000C9465000C94650011241FBE4F
:10009000CFEFD0E4DEBFCDBF11E0A0E0B1E0E6E4F9
:1000A000FBE000E00BBF02C007900D92AA31B10740
:1000B000D9F721E0AAE1B1E001C01D92AE34B20748
:1000C000E1F70E94CB030C94A1050C940000CF93A0
:1000D000DF9300D01F92CDB7DEB789837B836A831D
:1000E00089818A3031F48A819B81BC018DE00E9434
:1000F000670080EC90E0FC018081882F90E08072A6
:100100009927892BB1F386EC90E02981FC012083AB
:1001100080E090E00F900F900F90DF91CF910895C5
:10012000CF93DF9300D01F92CDB7DEB789836A8368
:100130004B838B81882371F08A81282F30E081E006
:1001400090E002C0880F991F2A95E2F7982F8981C5
:10015000892B0EC08A81282F30E081E090E002C018
:10016000880F991F2A95E2F7982F90958981892306
:100170000F900F900F90DF91CF910895CF93DF9361
:1001800000D0CDB7DEB789836A838A81282F30E01B
:1001900081E090E002C0880F991F2A95E2F7982F1E
:1001A000898189230F900F90DF91CF910895CF938C
:1001B000DF9300D000D0CDB7DEB769837A838B831D
:1001C0009C8389819A81AB81BC8180930E0190933D
:1001D0000F01A0931001B093110180910E01909135
:1001E0000F01A0911001B091110180931B01909318
:1001F0001C01A0931D01B0931E0100000F900F90F1
:100200000F900F90DF91CF910895CF93DF93CDB7EB
:10021000DEB781E890E02BE0FC01208388E890E0E5
:100220002DE730E0FC01318320838FE690E022E06F
:10023000FC01208384E890E0FC011182108280910F
:100240000E0190910F01A0911001B09111018093C6
:100250001B0190931C01A0931D01B0931E018FE51B
:1002600090E02FE530E0F90120812068FC01208337
:100270000000DF91CF910895CF93DF93CDB7DEB724
:1002800081E890E0FC0110820000DF91CF91089599
:10029000CF93DF93CDB7DEB781E080931A010000E2
:1002A000DF91CF9108951F920F9200905F000F92FF
:1002B000112400905B000F922F933F934F935F9315
:1002C0006F937F938F939F93AF93BF93EF93FF931E
:1002D000CF93DF93CDB7DEB780911B0190911C01C6
:1002E000A0911D01B0911E010197A109B109809350
:1002F0001B0190931C01A0931D01B0931E018091DE
:100300001B0190911C01A0911D01B0911E01892B30
:100310008A2B8B2B91F40E94480180910E019091C1
:100320000F01A0911001B091110180931B019093D6
:100330001C01A0931D01B0931E010000DF91CF911D
:10034000FF91EF91BF91AF919F918F917F916F91AD
:100350005F914F913F912F910F9000925B000F9012
:1003600000925F000F901F901895CF93DF93CDB749
:10037000DEB788E290E02FEEFC012083000086E2E9
:1003800090E0FC01808160E00E94BE00882311F4AF
:1003900081E3B8C086E290E0FC01808161E00E94C8
:1003A000BE00882311F484E3ADC086E290E0FC0136
:1003B000808162E00E94BE00882311F487E3A2C01E
:1003C00086E290E0FC01808163E00E94BE00882309
:1003D00011F48AE297C088E290E02FEDFC012083BF
:1003E000000086E290E0FC01808160E00E94BE0097
:1003F000882311F482E386C086E290E0FC018081CC
:1004000061E00E94BE00882311F485E37BC086E290
:1004100090E0FC01808162E00E94BE00882311F41C
:1004200088E370C086E290E0FC01808163E00E9476
:10043000BE00882311F480E365C088E290E02FEBD2
:10044000FC012083000086E290E0FC01808160E0F6
:100450000E94BE00882311F483E354C086E290E03A
:10046000FC01808161E00E94BE00882311F486E3D4
:1004700049C086E290E0FC01808162E00E94BE00FB
:10048000882311F489E33EC086E290E0FC0180817C
:1004900063E00E94BE00882311F483E233C088E247
:1004A00090E02FE7FC012083000086E290E0FC0151
:1004B000808160E00E94BE00882311F481E422C0A4
:1004C00086E290E0FC01808161E00E94BE0088230A
:1004D00011F482E417C086E290E0FC01808162E0C2
:1004E0000E94BE00882311F483E40CC086E290E0F1
:1004F000FC01808163E00E94BE00882311F484E443
:1005000001C080E0DF91CF910895CF93DF9300D0B9
:100510001F92CDB7DEB79B838A8380E290E0FC0117
:100520008081882F90E08170992721E0892B09F044
:1005300020E029838A819B818130910579F0823086
:10054000910589F0892BC9F481E09981913009F0F6
:1005500080E0882F90E09B838A8312C082E090E045
:100560009B838A830DC081E09981992309F480E0FF
:10057000882F90E09B838A8303C01B821A8200002D
:100580008A819B81019749F49091210181E099230F
:1005900009F080E08093210101C000008A819B81E5
:1005A0000F900F900F90DF91CF910895CF93DF932D
:1005B00000D0CDB7DEB79A83898389819A8100976D
:1005C00019F0019761F016C09091210181E0992303
:1005D00009F080E0882F90E09A8389830EC0909183
:1005E000210181E0992309F080E0882F90E09A832F
:1005F000898303C01A821982000089819A81009739
:1006000059F0019751F490911F0181E0992309F06D
:1006100080E080931F0101C0000089819A810F90C2
:100620000F90DF91CF910895CF93DF9300D0CDB796
:10063000DEB79A83898389819A81009719F001979F
:1006400061F016C09091210181E0992309F080E0CA
:10065000882F90E09A8389830BC09091210181E0DB
:10066000992309F080E0882F90E09A838983000025
:1006700089819A81009759F0019751F49091200156
:1006800081E0992309F080E08093200101C00000FF
:1006900089819A810F900F90DF91CF910895CF9328
:1006A000DF9300D01F92CDB7DEB79B838A838A8108
:1006B0009B81892B19F41B821A8203C01B821A8228
:1006C00000008A819B81892B61F480912001882F11
:1006D00090E0880F991F982F80911F01892B8983A3
:1006E000000085E290E02981FC0120838A819B81C2
:1006F0000F900F900F90DF91CF910895CF93DF93DC
:10070000CDB7DEB72C970FB6F894DEBF0FBECDBFC6
:100710006D837E838F83988729873A874B875C8791
:100720008D819E81AF81B88529853A854B855C8511
:10073000BC01CD010E947F05DC01CB0189839A8336
:10074000AB83BC8389819A81AB81BC81892B8A2B45
:100750008B2B29F489859A85AB85BC8511C0898549
:100760009A85AB85BC858D839E83AF83B88789814D
:100770009A81AB81BC8189879A87AB87BC87D0CFB0
:10078000BC01CD012C960FB6F894DEBF0FBECDBFD5
:10079000DF91CF9108950F931F93CF93DF93CDB740
:1007A000DEB761970FB6F894DEBF0FBECDBF84E20F
:1007B00090E02FEFFC01208385E290E0FC011082A5
:1007C00081E290E0FC01108282E290E02FEFFC01D8
:1007D000208388E0E2E1F1E0DE011A9601900D92BB
:1007E0008A95E1F784E090E098878F838FEF89877F
:1007F00089858093220182E390E0A0E0B0E08093BD
:10080000230190932401A0932501B093260182E354
:1008100090E0A0E0B0E08093270190932801A0939E
:100820002901B0932A0185E892E090932C018093EE
:100830002B01898580932D0184EF91E0A0E0B0E049
:1008400080932E0190932F01A0933001B09331013A
:1008500080912E0190912F01A0913001B091310132
:100860008093320190933301A0933401B09335010A
:1008700086ED92E0909337018093360189858093CD
:10088000380188EE93E0A0E0B0E0809339019093C6
:100890003A01A0933B01B0933C01809139019091C2
:1008A0003A01A0913B01B0913C0180933D019093AE
:1008B0003E01A0933F01B093400184E193E0909307
:1008C0004201809341018985809343018AE090E051
:1008D000A0E0B0E08093440190934501A0934601CD
:1008E000B09347018091440190914501A091460148
:1008F000B09147018093480190934901A0934A0128
:10090000B0934B018FE493E090934D0180934C01A1
:100910008A859B85FC0181819281A381B481898331
:100920009A83AB83BC831E821D8225C08D819E81EC
:10093000880F991F9E012F5F3F4F820F931F0996CB
:10094000FC0180819181FC012181328143815481AC
:1009500089819A81AB81BC81BC01CD010E947E035B
:10096000DC01CB0189839A83AB83BC838D819E811B
:1009700001969E838D832D813E818F8198852817D6
:100980003907A0F289819A81AB81BC81BC01CD017C
:100990000E94D7000E9405011E821D82A0C08D8189
:1009A0009E81880F991F9E012F5F3F4F820F931FDB
:1009B0000996FC0180819181FC0125813681478166
:1009C00050858D819E81880F991FBE016F5F7F4F7B
:1009D000860F971F0996FC0180819181FC0181811E
:1009E0009281A381B481281739074A075B0709F070
:1009F00045C08D819E81880F991F9E012F5F3F4FBB
:100A0000820F931F0996FC01008111818D819E81C7
:100A1000880F991F9E012F5F3F4F820F931F0996EA
:100A2000FC0180819181FC01218532858D819E812F
:100A3000880F991FAE014F5F5F4F840F951F099676
:100A4000FC0180819181FC018081082E000C990BB2
:100A5000F9010995F80180838D819E81880F991F86
:100A60009E012F5F3F4F820F931F0996FC018081EB
:100A70009181FC0115821682178210868D819E81DC
:100A8000880F991F9E012F5F3F4F820F931F09967A
:100A9000FC01608171818D819E81880F991F9E016B
:100AA0002F5F3F4F820F931F0996FC018081918138
:100AB000FC01258136814781508589819A81AB81EE
:100AC000BC81820F931FA41FB51FFB0185839683F2
:100AD000A783B0878D819E8101969E838D832D8112
:100AE0003E818F8198852817390708F458CF000078
:100AF00080911A018823E1F310921A014DCFA1E2EF
:100B00001A2EAA1BBB1BFD010DC0AA1FBB1FEE1F87
:100B1000FF1FA217B307E407F50720F0A21BB30BD2
:100B2000E40BF50B661F771F881F991F1A9469F74E
:100B300060957095809590959B01AC01BD01CF01AA
:060B40000895F894FFCFB8
:100B46000000000200000000670000000000010035
:0A0B5600000022012D0138014301C7
:00000001FF
